:100000000C9477030C94AF030C94AF030C94AF03E0
:100010000C94AF030C94AF030C94AF030C94AF0398
:100020000C94AF030C94AF030C94591F0C94951EC1
:100030000C94B1140C94AF030C94AF030C94AF0365
:100040000C94AF030C94AF030C94AF030C94AF0368
:100050000C94AF030C9464140C94AF030C94AF0392
:100060000C94AF030C94AF030C94AF030C94AF0348
:100070000C94AF030C94AF030C94AF030C94AF0338
:100080000C94AF030C94AF030C94AF030C94AF0328
:100090000C94AF030C94AF030C94AF030C94AF0318
:1000A0000C94AF030C94AF030C94AF03370B370BD6
:1000B000670B670B000C590D590D590D1E0C910C57
:1000C000A40CA40CBD11D311DA11811381131212E7
:1000D0001E122D12811334125B128412BE12C11231
:1000E000CD12D712EF120E132B134A1360139B1C61
:1000F000C21C771EC21C771E0E1D311D771E321EBC
:10010000421EFD377A585A000004E6D6B446020073
:10011000210116000000742FE5A3E004A4019F5DF7
:10012000003D8889C65436C3174FE4F5F2ECCC1E67
:1001300078E1A727B17C3839AFA320360DF61189B5
:10014000C06FBDAC9AFA5456EFCBB0E626476A753D
:10015000AB85DE799790F375A43344900A0715CCEC
:10016000A11186A05CE21CC5C183C20ECDD5C0B36F
:100170006C1032D6D0AEBAFDC973C44EFE6E1C9F51
:1001800089AF56F519C7CAD56F7227FD5037CDCA4A
:10019000214A74F388FD1AECDB8E1D8D873B0B1C06
:1001A0007E82E6AC927174F55A32A5B0C712145231
:1001B0003B5EB3F4AFA4F3DF5EBFC18A964DAB23C1
:1001C00067D055E9A9D51394873539B62C68E7AAC5
:1001D000F43E0A82ADB26805F9A855046E2A746728
:1001E000DDFB7E1486C10C53CDD77E57A7084DD0BA
:1001F00076D1BFFD17123A957D48581A1743958D51
:10020000DD9853C63F3F093A34A48F0446A0D54633
:10021000E5633C505B32C58BF1DDA40E96B054BC57
:10022000CACBBC67D79215D0370129D6F444A84968
:100230005335724B5127A14D08426742764FD68005
:10024000E9C38C0D2F67F44FF832CCD3258247DCFD
:1002500076CD979E3F63C747DF2E8D4509B19653F4
:100260009D5480EA5D3D32B09A0B7DEBC97117EB6E
:100270006BB9EAE2298E4470A90F7446F1D9A683BE
:100280009EB5286F59A18F9510131CECF7B0352C33
:100290008668560E5D31D3CC4F9131288ABBF06B06
:1002A0001852A4340424E257003FDCC12DD855CEA7
:1002B00058D51ABC35C47344B27C69C55792BB9AF1
:1002C00000005B7B1039E2CA21BB0001BB03A5091A
:1002D0000000039F9C81B1C467FB02000000000482
:1002E000595A29001F0021002300250027002E0055
:1002F000530055001E0020002200240026002D007F
:100300002A00540056002B001A0015001C000C0097
:10031000130030005F00610014000800170018008F
:1003200012002F002800600057008200160009000C
:100330000B000E00330031005C005E00040007007B
:100340000A000D000F00340000005D006700E100AE
:100350001D000600050010003700E50059005B0095
:1003600035001B00190011003600380052005A00F9
:100370000000E000E20000000000E6005000000085
:1003800062006300E300000001512C0000004F00F8
:1003900051000000580029001F0021002300250003
:1003A00027002E00530055001E00200022002400CC
:1003B00026002D002A00540056002B001A001500BC
:1003C0001C000C00130030005F00610014000800E6
:1003D0001700180012002F0028006000570082004C
:1003E000160009000B000E00330031005C005E00B7
:1003F000040007000A000D000F00340000005D003B
:100400006700E1001D000600050010003700E50050
:1004100059005B0035001B00190011003600380040
:1004200052005A000000E000E20000000000E60078
:100430005000000062006300E300000001002C0097
:1004400000004F0051000000580001000100DF02D1
:10045000000002000200DB02000003000100E002D5
:10046000000004000200C502CC1305000100E102F7
:10047000000006000200C702000007000200DD02C3
:10048000000008000100E202000012000200E30286
:10049000000013000200E502000014000100E70262
:1004A000000005010980A101850319012AB7001583
:1004B0000126B700950175108100C0050C0901A146
:1004C00001850419012AA002150126A002950175D3
:1004D000108100C005010906A1018506050719E084
:1004E00029E7150025019508750181020507190006
:1004F00029EF1500250195F0750181020508190104
:100500002905950575019102950175039101C006B4
:1005100060FF0961A1010962150026FF00952075A1
:100520000881020963150026FF00952075089102D5
:10053000C005010906A101050719E029E7150025F5
:10054000019508750181029501750881010507195A
:100550000029FF150026FF00950675088100050893
:100560001901290595057501910295017503910100
:10057000C009025B00030100A0FA090400000103A6
:10058000010100092111010001224000070581033A
:100590000800010904010002030000000921110103
:1005A0000001222200070582032000010705030342
:1005B00020000109040200010300000009211101CB
:1005C0000001226D000705840320000112010002D2
:1005D000000000086963776B0100010203011C033E
:1005E0007600690061006C003A0066003600340055
:1005F0006300320062003300630000002A036D00D4
:100600003000310031003800200049006E007400D5
:1006100065006700720061007400650064002000DE
:100620005500730062000000100343006900700071
:1006300075006C006F0074000000040309040000E2
:1006400000000000000000000000000000000000AA
:10065000000000000000000000000000000000009A
:1006600000007E0F00D4FFFFFFC7000000780000ED
:100670000000000000002A2B2800000000000000FD
:1006800000000000000000000029000000002C1EF7
:100690003420212224342627252E362D3738271EB4
:1006A0001F202122232425263333362E37381F04DA
:1006B00005060708090A0B0C0D0E0F101112131472
:1006C00015161718191A1B1C1D2F3130232D350430
:1006D00005060708090A0B0C0D0E0F101112131452
:1006E00015161718191A1B1C1D2F3130354C1124E3
:1006F0001FBECFEFDAE0DEBFCDBF04B603FE18C0E9
:100700008091650590916605A0916705B091680597
:100710008730904BA740B04B59F41092650510926A
:1007200066051092670510926805E0E0F8E3099508
:1007300011E0A0E0B1E0E0E9F4E602C005900D921E
:10074000A237B107D9F725E0A2E7B1E001C01D92B9
:10075000A536B207E1F70E94C30D0C9446320C9403
:1007600000002F923F924F925F926F927F928F92F2
:100770009F92AF92BF92CF92DF92EF92FF920F9330
:100780001F93CF93DF93CDB7DEB72C970FB6F894B6
:10079000DEBF0FBECDBF7C01DC0113964D915C9195
:1007A000149711966C9111978C910E9430178111BA
:1007B0000C94AA0D61E0C7010E94812B8C01F70106
:1007C0008281811106C0D70112963C9031103EC043
:1007D0008AC680910D0190910E010196A1F37FEEE2
:1007E000C72E72E0D72EA12CB12C9924939480911E
:1007F0000D0190910E018A159B052CF3F60186815F
:100800008823E9F0818592850817190739F48091CA
:10081000ED029091EE020817190789F0D6011F9694
:100820009C921F971C961C930E931B97C6010E94C7
:10083000B615C60106960E946F151092EC02BFEF26
:10084000AB1ABB0AE6E1CE0ED11CD1CFC801825152
:100850009F45409708F0AFC08FEF93E00E94D231E0
:1008600081112EC6025163EAA62E62E0B62E002345
:1008700079F0A114F4E0BF0609F422C6C5010E9474
:10088000D231811101C001502FEFA21AB20AEFCF6D
:1008900019821A821B821C82CC24CA9485010F5FA4
:1008A0001F4FC5010E94D23189831A82882309F41F
:1008B00007C6813009F07AC0450132E0830E911CF1
:1008C000C8010E94D231D82E8A83882309F4F8C542
:1008D0008FEF8D0D833050F40E5F1F4FC4010E94C7
:1008E000D2318B83811162C05801D8CF8BEF8D0D2F
:1008F000833070F5350143E0640E711CC4010E9421
:10090000D2318B83811102C08301EECF85010C5F50
:100910001F4FC3010E94D2318C83882329F32B817E
:100920003C8121305FEF350718F0922F80E001C045
:10093000C901A6E0DA1631F0B7E0DB1631F00E940B
:10094000B430D2CF0E948330CFCF0E94FA2FCCCFC9
:10095000E4E0DE1611F08401C7CFC4010E94D23159
:10096000D82E85010C5F1F4FC50103960E94D2311E
:10097000DD2009F4A5C5882309F4A2C5282F30E09D
:1009800021503109C29EA001C39E500D11248D2D0E
:1009900090E00197840F951F019708F4A5CFAFE968
:1009A000BFE01197F1F700C00000F6CFCE0101962D
:1009B0000E94A52A99CF0031EFE51E0731F00131E1
:1009C000FFE51F07A9F482E001C081E00E944421F5
:1009D0000E94A81B75C5680127E5D21A3FEFC31610
:1009E000D10409F008F48EC5F70132803320D1F02C
:1009F0000F35FDE51F0761F000362DE5120761F0A8
:100A00000E353DE5130771F480910001811104C09A
:100A100081E08093000154C51092000180E00E94A3
:100A2000A0164EC580910001811108C0C8019755DC
:100A30008F3F910509F008F47AC1CDC1480140EE1D
:100A4000841A91082090730480914D04282A809183
:100A5000E501282A58E08516910480F49801277052
:100A6000332781E090E001C0880F2A95EAF7332010
:100A700011F0282A18C08095282215C0332009F4C7
:100A800016C110937501009374010E94991460932C
:100A9000BA027093BB028093BC029093BD02109285
:100AA000C2021092C102D7018D919C910E94D72061
:100AB00021E030E0F90102C0EE0FFF1F8A95E2F756
:100AC000FC87EB872091C3023091C40238872F83C3
:100AD00040917401509175015A8749871D82432CBA
:100AE000512C5D81E52FF0E0EE0FFF1FE552FB4F2B
:100AF000C080D180C114D10409F4F0C0211005C018
:100B0000D60112968C918111CEC0F601838190E0BE
:100B10002B853C8582239323892B09F4C4C08085CF
:100B2000982F977009F487E038E08316910440F419
:100B3000332019F081FD09C0B6C082FD06C0B3C0E4
:100B4000332009F4B0C080FFAEC0D601AD90BC9098
:100B50000A151B0519F4332009F4A5C0EF81F885A7
:100B6000CE16DF0609F49FC0D6011D96ED91FC91CB
:100B70001E97309721F08081882309F494C0622D5C
:100B8000C6010E941017882309F48DC00A151B05A1
:100B900011F4320102C0612C712CB62DB170BE83EC
:100BA00081E0A114B10441F0B11106C0E985FA85D4
:100BB000AE16BF0609F080E080FF75C080E00E949D
:100BC000A016D092C402C092C30281E08093C002FA
:100BD000D60115968C918093BE02BE81B11113C0CF
:100BE000AB2889F0F601808191819C012450310964
:100BF000213A310530F4682F81EC91E00E94DA143B
:100C000002C00E94B121D6011696AD90BC901797F4
:100C1000C5019A9581159F4110F4E0EEBE2255243E
:100C20005394C5010197853A9D4508F0512CD60192
:100C30001996ED91FC911A97309739F01B966D91AA
:100C40007C911C9781E009955822552029F1F601E5
:100C5000868197810E94F62D8093BF02C501F8E03E
:100C60008F16910418F40E944F1616C00497813A0B
:100C7000910530F46A2D81EC91E00E9402150EC0BE
:100C80000E9492298FE39CE90197F1F700C00000D0
:100C90008A2D0E94082202C00E94922991E06926B2
:100CA00060FE79C1C3CEAD81AF5FAD831ACF8091B5
:100CB0007401909175010817190781F4109275015C
:100CC000109274011092BA021092BB021092BC02F0
:100CD0001092BD021092C2021092C1028091C30212
:100CE0009091C402009709F4A1CEB8E08B1691044C
:100CF00038F4622D0E941017811198CE81E014C043
:100D0000FC01208131810217130729F4311006C03C
:100D10001092C00208C0332009F488CEDC01189676
:100D20008C9185FD83CE80E00E94A0167FCE20911D
:100D30000D0130910E012817390724F490930E010C
:100D400080930D01F701228136E1389F5001399FD0
:100D5000B00C1124A50141515D4F6A01DA01509692
:100D60002C935097928116968C911697992341F166
:100D70001A961C930E9319978F5F16968C930E9468
:100D8000A514F601968785878091730487839091D7
:100D9000EC028091E501892B80870190F081E02DA4
:100DA000309749F0D60154966D917C915597C501C5
:100DB0008B509D4F09951093EE020093ED020BC0EE
:100DC000882349F0FA018189882329F0C5018B50D5
:100DD0009D4F0E946F158091E00280FF9DC00E9490
:100DE000A5146C01D70112968C918823D9F18091BA
:100DF000130182FF08C022EA31E040E0B60180E042
:100E000090E00E94CA180B31BCE51B0779F00C3149
:100E1000ECE51E0789F00A31FCE51F07A1F480917B
:100E20001301982F909590FB80F909C080911301D0
:100E300081608093130107C0809113018E7F80939E
:100E400013010E948D18C8019056811520E2920767
:100E500020F0905E8115904180F510920902109269
:100E600008025AC0013E110521F4809113018F7EC2
:100E700006C0053E110531F4809113018F7D8093EA
:100E800013011BC0C8019056811540E2940720F061
:100E9000905E8115904188F48091130182FF3CC0DF
:100EA0008091E20281FD38C022EA31E040E0B601E3
:100EB00080E090E00E94CA182FC08091130180FF4B
:100EC0002BC0D70112968C910832110538F40E31DF
:100ED0001105B8F40430110578F41CC0093311056C
:100EE00038F40D32110590F40B32110579F012C06F
:100EF0000436110559F00EC09091E00294FD0AC02D
:100F00004DC09091E00293FD05C048C09091E00271
:100F100092FF44C08111EFC0033FFCE51F0709F4B5
:100F200017C108F01BC1083D3CE5130709F40AC1CD
:100F3000093D4CE5140709F42DC1073D5CE5150793
:100F400009F4FAC0D70112962C9121112CC1063157
:100F5000BCE51B0709F095C28091E501982F9A7AAC
:100F60003091DF0230FD66C231FD6AC232FD6EC2D1
:100F700033FD72C2222309F478C281E0911101C0CD
:100F800080E080937601992309F46DC265E381ECDA
:100F900091E00E9402150E94922992C2882309F4CE
:100FA000A3C02091E50180917304982F922B392FD3
:100FB0003D7F79F110920902109208023091E0020F
:100FC00031FD27C0F80143E0F695E7954A95E1F732
:100FD000EE71FF27EA51FE4F98012F70332781E011
:100FE00090E002C0880F991F2A95E2F780959095AE
:100FF000208131818223932391838083A70160E044
:10100000C8010E94AB18809173048D7F0E94F9285B
:1010100067C038E0F701A2EAB1E001900D923A957D
:10102000E1F71092A4011092A6011092A50140913F
:1010300008025091090204171507D1F53091E0021A
:1010400035FF36C04091130141FF02C036FF30C06A
:101050004091060250910702B601641B750B409146
:10106000DD025091DE026417750710F521FF08C0FC
:101070008091130180618093130182E00E94142902
:101080008091E50185FF08C0809113018062809303
:10109000130180E20E94142960911301669561702A
:1010A000A70180910802909109020E94AB1808C222
:1010B000969591702091130190FB21F920931301D3
:1010C0008D7F0E94F9281093090200930802D092A4
:1010D0000702C0920602809113018460809313017D
:1010E00082E00E942829ECC1970140E0B601C801C6
:1010F0000E94CA18E5C11092090210920802033F2B
:10110000BCE51B0729F170F4083DFCE51F07D1F091
:10111000093D2CE51207F1F1073D3CE5130709F005
:1011200042C00AC0053F4CE5140719F1E0F0063F44
:101130008CE5180749F137C006E221EE41EE67ED74
:101140007CE52DC007E225EE45EE68ED7CE527C085
:1011500006E221EE40EE63EF7CE521C0053F8CE521
:10116000180739F060F407E225EE44EE64EF7CE501
:1011700016C006E221EE42EE65EF7CE510C0063FA8
:10118000ACE51A0709F0DECE07E225EE46EE66EF83
:101190007CE505C008E221E045EE69ED7CE5C7018C
:1011A0000E94D8158DC11092EB020330BDE51B07DC
:1011B00058F40A3FECE51E0780F4C80182509C45B4
:1011C000449708F035C109C00136FDE51F0729F035
:1011D000053A2DE5120709F02BC10E947328909360
:1011E000AB038093AA0301313CE5130709F4C6C0A1
:1011F00008F042C009305CE5150709F49BC000F512
:1012000005309CE5190709F485C078F40330BCE586
:101210001B0709F478C008F07AC002301C4509F0B9
:10122000F7C08091AA038160F1C007302CE5120756
:1012300009F478C008F07AC08091AA038061E6C002
:101240000D304CE5140709F487C058F40B308CE5D9
:10125000180709F479C008F07BC08091AA03886060
:101260006FC00F30ACE51A0709F480C008F082C0E7
:101270008091AA03877FCAC00D3FECE51E0709F4E1
:1012800071C000F505312CE5120709F485C068F43A
:1012900003314CE5140709F475C008F095C00E94AD
:1012A0007D218091AA038F77B1C00B3F8CE5180791
:1012B000A9F108F054C00A3F1C4509F0A9C080916B
:1012C000AB0340C00130BDE51B0709F489C058F4E9
:1012D0000F3FFCE51F0709F45AC008F069C0809170
:1012E000AB0382602FC001363DE5130709F47EC0D1
:1012F000053A4DE5140709F483C002301D4509F095
:1013000087C060E06EC08091AA0382607FC0809138
:10131000AA0316C08091AA03886078C08091AB03AD
:1013200082604FC08091AA03806270C08091AA033E
:1013300080646CC00E947D218091AA03806866C091
:10134000846064C081603DC08091AA038E7F5EC0CE
:101350008091AA038D7F5AC08091AA0316C0809104
:10136000AB0318C08091AB038D7F2BC08091AA0383
:101370008F7E4CC08091AA038F7D48C08091AA03C4
:101380008F7B44C08091AA03877F8B7F3FC0809171
:10139000AB038D7F8E7F15C08091AA0382FB22272D
:1013A00020F991E0922790FB82F990FB83F92EC0FF
:1013B0008091AB03982F909591708E7F892B90FB35
:1013C00081F98093AB0324C00E947D218091AA0300
:1013D00087FB222720F991E0922790FB87F916C01E
:1013E00061E08EE090E00E94E03112C08091AA039B
:1013F00084FB222720F991E0922790FB84F906C014
:101400008091AA03982F909590FB80F98093AA036E
:101410006091AA031091AB0384E090E00E94E03158
:10142000612F82E290E00E94E0310E947D2148C05D
:1014300021E08DCD482F447409F496CD90E094CDF1
:10144000482F417109F492CD90E090CD482F487813
:1014500009F48ECD90E08CCD827209F48BCD2223DD
:1014600021F01092760169E292CD80917601882375
:1014700011F065E301C069E281EC91E00E94DA14A9
:101480008ACDD70112968C91882309F49CC00A3525
:101490008DE5180709F492C008F081C00115ACE58C
:1014A0001A0709F076C00E947D212FEF34E34CE04B
:1014B000215030404040E1F700C000000E9440143D
:1014C00080915004877009F445C3D70112968C911E
:1014D000882309F43FC38091AB0382FD3BC382E0C4
:1014E0000E94282937C30031FFE51F0721F481E05E
:1014F0000E9438216DCA01312FE5120709F06BCA2D
:1015000082E0F6CF60E874E08C2D0E94D81A892B17
:1015100009F06ACA86E18C9DF0018D9DF00D1124C1
:10152000E151FD4F86818130E1F4809180049091FA
:101530008104892B09F458CA809182049091830414
:10154000892B09F451CA8091840490918504892BD8
:1015500009F04ACA8091860490918704892B59F03A
:1015600043CA823009F040CA809184049091850476
:10157000892B09F439CA26E12C9DC0012D9D900DBF
:10158000112481519D4FDC0150961C920E94B6158A
:101590002BCA0E3D1C45B9F40E94842891CF0B350F
:1015A000EDE51E0769F00C351D4569F48091AB032C
:1015B00082FB882780F991E0892703C081E001C080
:1015C00080E00E944529F701868197810097B9F450
:1015D000F701828100811181882349F0C8010E94AE
:1015E0009B20D82E682FC8010E94072104C0C80183
:1015F0000E94D720D82EB8018D2D0E940A1A0E9471
:10160000EA26182F092FD7011296BC90129715962B
:10161000CC90C2943FE0C322809150048770B9F00F
:10162000BB20A9F0892F807F803421F080E2810FD8
:10163000883068F08091AB0382FD09C082E00E948F
:101640002829809150048770AA24A3948111A12C89
:10165000902E92942FE09222892D90E08C3091056B
:1016600008F027C2FC01EA5AFF4F0C941C32902F5D
:101670009F70802F807FD92E19F0D29490EFD922BD
:10168000BB20A9F0DD2009F4F4C180E2810F88308D
:1016900010F0111104C08D2D0E941B2905C08091EE
:1016A000EC02D82AD092EC020E949229E2C1812F4A
:1016B0000E94B121DD2009F4FCC180E2810F883055
:1016C00068F1112359F18D2D0E940D292AC0902F08
:1016D0009F70802F807FD92E803219F0D29480EFB6
:1016E000D822112321F0113009F45CC067C0809129
:1016F000AB0382FF19C0BB2059F0DD2029F08D2DEE
:101700000E941B290E94922980E00E940822D1C1D8
:1017100080E00E94B121DD2009F4CBC18D2D0E9413
:1017200014290E949229C5C1BB2001F1CC20D1F01F
:10173000B1E0CB1206C0809173048D290E94F92874
:10174000B8C18091E102823068F0C8120BC00E94DB
:10175000EE2880914D04D812D0924D048D2D0E9418
:10176000AA21A7C1809173048D29F9CFCC2079F0EB
:101770008091E102E1E0CE1210C0823008F499C1FC
:101780008091E5018D2109F494C10E94022A0E94F2
:10179000EE288D2D0E94A3218CC18230C0F3C81287
:1017A000F6CF87C18091E702BB2021F08C1508F4A9
:1017B00080C1D4CFC81608F07CC1EBCFBB20E9F0C4
:1017C000CC2061F220E0D7014C9111965C911197E9
:1017D00012966C91129713967C91139714968C9194
:1017E0000E94582B8091E20281FD43C1F70185815F
:1017F00080FF3FC18F708583B1CFC11043C1C9CF76
:10180000802F86958695837019F0813061F051C1E3
:10181000BB2021F0812F902F937002C080E090E0D8
:101820000E944D154CC1BB2021F0812F902F937049
:1018300002C080E090E00E94371541C1802F837084
:10184000A1F5B1103AC1412F429546954770440F1A
:10185000440F212F2F7030E0C901042E01C0880FE2
:101860000A94EAF714FF08C02FE030E001C0220F0D
:101870004A95EAF7209501C020E0302F369536953D
:101880003370323069F040F440917404313019F013
:10189000822B842302C0842B822B0E944F210DC1F6
:1018A000282B809174048227F8CFBB2019F0802F59
:1018B000817001C08695882309F4FFC0412F4295AD
:1018C00046954770440F440F212F2F7030E0C90117
:1018D000042E01C0880F0A94EAF714FF08C02FE015
:1018E00030E001C0220F4A95EAF7209501C020E0C0
:1018F000302F369536953370323051F070F4409178
:10190000DE03313019F0822B842308C0842B05C0FC
:10191000282B8091DE03822701C0822B0E94342174
:10192000CCC0F02FFF70DF2EBB2039F08F2F0E942C
:101930004421812F0E94AA21C0C0812F0E94A3218F
:101940008D2D0E943821B9C0123F11F128F4103FAB
:1019500041F0113FA9F189C0133F01F1143F61F13A
:1019600084C08091E702BB2021F0C81608F0A1C016
:1019700003C08C1508F49DC0202F2F7181E090E0EA
:1019800001C0880F2A95EAF79091DE0389270FC0DE
:10199000802F8F71BB2009F470C087C0BB2051F02D
:1019A00081E0902F9F7101C0880F9A95EAF70E94FD
:1019B00034217FC080E0FBCF8091AB0382FF06C063
:1019C000802F8F71BB2009F470C057C08091E10255
:1019D0008230A0F180914D04BB20E1F00E941429D7
:1019E000809150048770843039F40E942129802F1F
:1019F0008F710E9438215CC08091E102C81608F006
:101A000057C0202F2F71D22E822F0E94442163E0D5
:101A10008D2D0DC00E941B298091E102C81650F047
:101A20000E9421290E94022A64E0802F8F710E9467
:101A300062293EC081E00E9428293AC0BB2059F0AB
:101A4000302F3F71D32E832F0E94442163E08D2DD0
:101A50000E9462292EC081E00E94282941E04C1595
:101A600040F582E00E94282924C0BB2049F0CC2008
:101A700011F0812F4ACE802F8F710E94442119C00E
:101A8000CC2089F0193329F48091E5029091E60287
:101A900004C08091E3029091E4020E94BF18812F5C
:101AA0000E94B12106C0802F8F710E94382101C091
:101AB000A12C88EF890D843010F40E946315812FCA
:101AC000902F0E945321811105C01092780110922D
:101AD000770125C0BB2019F0C110F7CF20C0C1107D
:101AE000F4CF20E0D7014C9111965C91119712969A
:101AF0006C91129713967C91139714968C910E9477
:101B0000582B8091E20283FFE0CF80917701909182
:101B100078010297D1F6812F0E94BF22D6CFAA204A
:101B2000A9F08091500480FD11C0F70112828595C3
:101B3000859585950E944421C7010E94B10380913B
:101B400050048595859585950E94382160E0C701F0
:101B50000E94812B2C960FB6F894DEBF0FBECDBF2E
:101B6000DF91CF911F910F91FF90EF90DF90CF9079
:101B7000BF90AF909F908F907F906F905F904F90AD
:101B80003F902F900895CF93DF93CDB7DEB7E497C2
:101B90000FB6F894DEBF0FBECDBF84B7877F84BF7A
:101BA0000FB6F894A89580916000886180936000DA
:101BB000109260000FBE90E080E80FB6F89480931A
:101BC0006100909361000FBE85B7806885BF85B7BF
:101BD000806885BF89EC95E29093730180937201D0
:101BE0000E94A42F0E944B2F0E94BA2E0E9492198D
:101BF0000E94D91E0E94F81E8091E20084608093AA
:101C0000E20078948091D4038823A1F01091E90038
:101C10001F709091EC00892F817090FD80E8182B47
:101C20001092E9008091E80083FD0E94B31B1F70B1
:101C30001093E90082E084BD93E095BD9AEF97BDD3
:101C400080936E000E94A031811102C00E949131E8
:101C50000EE111E0B8E2EB2EB1E0FB2ED8018D9140
:101C60008D018F3F11F00E940E26E016F106B1F7AC
:101C700008E211E0A1E3EA2EA1E0FA2EF801819139
:101C80008F018F3F11F00E940E26E016F106B1F78A
:101C900084E1EDEAF1E0DF01282F1D922A95E9F7B2
:101CA000E9E7F1E0DF011D928A95E9F780E090E035
:101CB0000E94DA31893E9E4F21F40E94A0318111A9
:101CC00002C00E94842882E090E00E94D23180937A
:101CD0008D010E9473289093AB038093AA030E9406
:101CE0002526EFE3FCE93197F1F700C000000E94E0
:101CF00025268091AD0180FF08C06FEF7FEF80E067
:101D000090E00E94FE310E94401483E090E00E9427
:101D1000D2310E944F2181E091E09093A203809301
:101D2000A103E8E14E2E512CF1EC6F2EF1E07F2E55
:101D30008E010F5F1F4F8091D403853009F045C09D
:101D400060E1E62E72E1F72E8091D403853009F030
:101D500038C08091D403843011F11092A503F0E4CF
:101D60000FB6F894A895409260000FBEF093600003
:101D700083B7817F846083BF83B7816083BF78949A
:101D8000889583B78E7F83BF0FB6F894A89580910E
:101D90006000886180936000109260000FBE8091A7
:101DA000D303882309F4D0CF0E942526EDEAF1E081
:101DB00081919191892B09F0CCC46E167F06C1F7F1
:101DC000C3CF0E947D210E9463150E9425268111A8
:101DD0000E9499145DEAA52E51E0B52EEEE8F1E0DF
:101DE000D501E12CF12C7E2D2D913D918191919188
:101DF00082279327009779F160E0CC24C394D12CFB
:101E0000AC014C215D21452B09F16BA77CA72C214E
:101E10003D2181E0232B09F480E08DA70E94A514C9
:101E20008160782F9FA78EA74BA55CA56DA58FA578
:101E30000E948F2BF701EE0FFF1FE257FE4F8081AC
:101E40009181C826D926D182C0821CC06F5FCC0C7C
:101E5000DD1C6930A9F62FEFE21AF20A4AE0E41617
:101E6000F10409F68FEF88AB89AB1AAA0E94A5147A
:101E70008160782F9CAB8BAB48A959A96AA98CA922
:101E80000E948F2B8091C1029091C202892B09F48C
:101E90003EC04091B6025091B7026091B802709175
:101EA000B9022FB7F8948091A6039091A703A0914F
:101EB000A803B091A9032FBF841B950BA60BB70BEA
:101EC0004091B2025091B3026091B4027091B50298
:101ED00084179507A607B707D0F08091C1029091AB
:101EE000C2020E943D2E1092C2021092C1021092B4
:101EF000B6021092B7021092B8021092B902109274
:101F0000B2021092B3021092B4021092B502809104
:101F10000D0190910E01019651F1312C66E1262EB2
:101F20001DC0289EF001299EF00D1124E151FD4FA6
:101F3000C288D388C114D10421F4C090DD02D090AE
:101F4000DE02289E4001299E900C1124F401E151EB
:101F5000FD4F7F01868181110FC03394832D90E066
:101F600020910D0130910E0128173907D4F6809188
:101F70001401811111C038C0858596850E948A148C
:101F8000C816D90650F7C7010E94B615C4018B5078
:101F90009D4F0E946F15E1CF8091B0029091B102E8
:101FA000009711F10E948A1420910A0230910B02CD
:101FB00028173907C8F49091AE028091AF029817A4
:101FC00059F00E94DE1710920B0210920A02109232
:101FD000B1021092B00208C00E946D171092B102B7
:101FE0001092B0020E94BF178091E00280FF1EC0D5
:101FF0008091130182FF1AC00E94A514209106024D
:1020000030910702AC01421B530B2091110130911A
:1020100012014217530750F022EA31E041E0BC01BF
:1020200080910802909109020E94CA180E946315CB
:102030009091AA0189138093AA018091D4038430DE
:1020400009F079CE83E08093E9008091E80082FF77
:1020500072CE8091E80085FF23C00E94302081115C
:102060001DC050E2E52EF12CCE0101966C0109C095
:102070008091F100D6018D936D01B1E0EB1AF1086A
:1020800069F08091E80085FDF3CF8091E8008B77BF
:102090008093E8000E943020882399F391E001C0EA
:1020A00090E08091E8008B778093E800992309F411
:1020B00042CEE090E301F090E4018981E114F10463
:1020C00061F08E3F09F01DC38A81833008F449C155
:1020D0008550833008F015C344C1893009F40FC31B
:1020E000F0F4843009F471C050F48230C1F108F08A
:1020F0005FC0813009F003C31A8289E056C286307E
:1021000009F46AC008F0FBC22D813E8132272327E3
:1021100032274C816B818A810E94562EF2C2803117
:1021200009F4BAC080F48D3009F459C028F48C3019
:1021300009F0E5C280E1B4C08E3009F454C08F309C
:1021400009F47CC0DCC2823109F4ACC008F4A7C039
:10215000833109F4D1C08E3F09F403C1D0C28A8112
:10216000823009F40CC3833051F0813009F0C7C2CA
:102170000E9499149B838C837D836E83C2C280915D
:102180000F0190911001892B09F4BBC2FE01319619
:10219000CE014596D5012C9111963C91B2E0AB0E43
:1021A000B11C328323833296E817F90799F7A9C245
:1021B0008A81823009F0A3C26B817C818D819E81EE
:1021C0000E9422320E946F319CC24C816B818A81B5
:1021D0000E948C2E9D83DAC20E94261A92C281E050
:1021E0008A838DE5E2C1EA80FB80FE24EF24FE2491
:1021F000AC80B12CEDE1AE16B10408F082C26801EA
:10220000C7018D559D4F9601201B310B2A153B05AB
:1022100008F077C2FDE5EF16F1E0FF0630F40E940A
:10222000D231D60114968C9302C0F6011482FFEFCE
:10223000EF1AFF0A2FEFC21AD20AE2CF80910F01E4
:1022400090911001892B09F45CC2EA80FB80FE2486
:10225000EF24FE24CC80D12C4DE1C416D10408F02B
:1022600050C25801C7018D559D4F9501201B310B60
:102270002C153D0508F045C2ADE5EA16A1E0FA06C9
:1022800020F4F50164810E94E031FFEFEF1AFF0AAC
:102290002FEFA21AB20AE6CF0E94FA1932C282E0E8
:1022A0008A832FC2EA80FB80FE24EF24FE24AC80C8
:1022B000B12C4DE1A416B10408F023C26801C70196
:1022C00087969601201B310B2A153B0508F019C291
:1022D000A8E6EA16A1E0FA0628F40E94D231F60137
:1022E000848303C0D60114961C92BFEFEB1AFB0A3D
:1022F000EFEFCE1ADE0AE3CFEA80FB80FE24EF2464
:10230000FE24CC80D12CFDE1CF16D10408F0F9C118
:1023100028E6E21621E0F20608F0F3C188E691E033
:102320008E199F098C159D0508F4EBC15801C70152
:1023300087969501201B310B2C153D0508F0E1C156
:1023400048E6E41641E0F40628F4D50114966C91B1
:102350000E94E031BFEFEB1AFB0AEFEFAE1ABE0AA4
:10236000E6CFEA818E2F90E08E30910508F0C9C14A
:10237000FC01EE59FF4F0C941C3288E0E6E1F1E0DD
:10238000DE01919601900D928A95E1F780E2D801E5
:102390001D928A95E9F785E0898388E0FE01B19670
:1023A000DE01159653C180EE898381E08A831B820A
:1023B0001C82A7C18C8190E0982F88272B81820FE7
:1023C000911D092E000CAA0BBB0B45E0880F991F2D
:1023D000AA1FBB1F4A95D1F7AC01BD01405E5F4FFC
:1023E0006F4F7F4F481759076A077B0708F489C169
:1023F000803EE1E09E07A105B10508F082C1413EA3
:10240000F1E05F076105710520F040EE51E060E00A
:1024100070E0481B590BBC016E5F7E4FC8010E94E3
:10242000B9316FC140E250E06FEF70E0C8010E9427
:102430003F3280910F018983EA8263C181E090E09D
:102440009093E4018093E30182E390E09093AC01E8
:102450008093AB010E94A51454C180910F01898320
:10246000EA828091AB01A1C0EB80FC8040E250E0A9
:102470006FEF70E0C8010E943F322AE434E080E050
:1024800090E0AC014E5F5F4F4132510508F039C119
:10249000F90165917491E616F70630F4F801E80F3A
:1024A000F91F71836083CA01285F3F4F44E0223ADD
:1024B000340739F726C12B813C818AE494E0FC0182
:1024C000459154912417350731F00896A4E0823ADB
:1024D0009A07A9F714C1009709F411C19C012E5F56
:1024E0003F4FF901459154914032510508F007C121
:1024F000F90145915491FC01349665917491CE0196
:1025000002960E94363238C08B819C812AE4E22EEA
:1025100024E0F22EF701259134918217930749F0B8
:10252000B8E0EB0EF11CE2EAEE16E4E0FE0691F7ED
:10253000E6C0E114F10409F4E2C0C7010296FC010F
:10254000259134912D31310508F0D9C0FC01459118
:102550005491F701349685919491BE016B5F7F4F42
:102560000E9436320E94B919F701369685919491EE
:10257000009711F0FC01099580E0C2C00E94D619B5
:10258000C0C0EB818E2F90E08730910508F0B9C074
:10259000FC01E059FF4F0C941C3280E2D8011D92DF
:1025A0008A95E9F788E089838A838B83AAC08C8126
:1025B0009AE0F92E6E01B1E2CB0ED11CF6012F2D5F
:1025C00011922A95E9F7B6010E94D81A8983F6017B
:1025D000DE01129601900D92FA94E1F792C06C819F
:1025E0008AE0FE013596DE01919601900D928A9562
:1025F000E1F7683070F44AE0649FB00111246D5433
:102600007E4F4AE050E0CE0181960E94043280E085
:1026100001C08FEF89830E94A42F73C06C81CE010B
:1026200081962AE0DC011D922A95E9F7683038F49A
:10263000BAE06B9FB00111246D5F7D4F3BC08FEFFF
:1026400089838AE0FE01B196DE01129601900D9217
:102650008A95E1F756C06C818AE0FE013596DE016D
:10266000919601900D928A95E1F7683070F4EAE056
:102670006E9FB00111246D5F7D4F4AE050E0CE01A6
:1026800081960E94043280E001C08FEF89830E940E
:102690004B2F37C06C81CE0181962AE0DC011D9260
:1026A0002A95E9F7683058F6BAE06B9FB00111241B
:1026B0006D5A7D4F4AE050E00E94C23180E0C0CFA9
:1026C0006C818AE0FE013596DE01919601900D92B3
:1026D0008A95E1F7683070F4EAE06E9FB00111244A
:1026E0006D5A7D4F4AE050E0CE0181960E9404323F
:1026F00080E001C08FEF89830E94BA2E02C08FEF65
:1027000089838091D403843009F015CB8091E9004E
:102710008F702091EC00922F917020FD90E8F92E9F
:10272000F82A82E08093E9008091E80080FF0CC0E5
:1027300040E050E060E270E0C8010E9463208091B8
:10274000E8008E778093E8008F2D8F708093E900EA
:10275000F2CAE9BCF9BC09B400FEFDCF8091D800F3
:102760008F7D8093D8008091E00082608093E000AC
:102770008091E00081FDFCCF0E947D21E5CA86E2C8
:1027800090E00E94D2311B821C821D828E83B9CFC1
:1027900008958091B10308958091C5029091C60279
:1027A00090931201809311010895CF93DF932091AC
:1027B0001501222339F02091AA0327FF03C060E20C
:1027C00024E002C068E021E02093E9002FEF30917F
:1027D000E800215035FD06C035ED3A95F1F70000CF
:1027E0002111F5CF2091E80025FF1DC0EC0180915B
:1027F0001501811105C040E050E068E070E003C0C1
:1028000070E040E050E0CE010E9463208091E8003B
:102810008E778093E80080E2FE01A2EBB3E00190A6
:102820000D928A95E1F7DF91CF9108958093AC03E3
:102830007093AE036093AD038091D4038430F9F4B8
:102840008093E9008FEF9091E800815095FD06C0DC
:1028500095ED9A95F1F700008111F5CF8091E80090
:1028600085FF0DC040E050E063E070E08CEA93E04B
:102870000E9463208091E8008E778093E80008959D
:1028800081E08093E00080E28093D8001092C9003C
:102890008FE19EE40197F1F700C0000087E090EB24
:1028A000DC018093650590936605A0936705B0935E
:1028B00068059CE088E10FB6F894A89580936000C5
:1028C0000FBE90936000FFCF78941F920F920FB6C7
:1028D0000F9211248F939F93AF93BF938091A60380
:1028E0009091A703A091A803B091A9030196A11DFF
:1028F000B11D8093A6039093A703A093A803B09360
:10290000A903BF91AF919F918F910F900FBE0F9030
:102910001F9018959C014FB7F8948091A603909151
:10292000A703A091A803B091A9034FBF821B930BEB
:1029300008952FB7F8946091A6037091A703809132
:10294000A8039091A9032FBF08952FB7F894809101
:10295000A6039091A703A091A803B091A9032FBF4C
:1029600008951F920F920FB60F9211248F939F9389
:10297000AF93BF938091A503811113C08091A603EB
:102980009091A703A091A803B091A9034196A11D1E
:10299000B11D8093A6039093A703A093A803B093BF
:1029A000A903BF91AF919F918F910F900FBE0F9090
:1029B0001F901895209115012223C9F02091AA0398
:1029C00027FF15C0262F2695269526952E31C8F46B
:1029D000FC01E20FF11D677081E090E001C0880FFB
:1029E0006A95EAF780959281892382830895FC0194
:1029F00006962281621301C012823196E817F90708
:102A0000C1F70895209115012223C1F02091AA0356
:102A100027FF14C0262F2695269526952E3130F5B2
:102A2000FC01E20FF11D677081E090E001C0880FAA
:102A30006A95EAF79281892B82830895FC01329688
:102A40002FEF30E04191641789F02F3F19F44111C5
:102A500001C0232F3F5F3630A9F72F3F39F0FC012B
:102A6000E20FF11D27FDFA956283089508952091E4
:102A7000A3033091A4032817390771F09093A4039E
:102A80008093A303E091A103F091A203309721F07A
:102A90000084F185E02D0994089520919F033091E1
:102AA000A0032817390771F09093A00380939F0328
:102AB000E091A103F091A203309721F00680F78105
:102AC000E02D09940895E091A103F091A2033097BD
:102AD00021F00190F081E02D099480E00895EF92BB
:102AE000FF920F931F93CF93DF93FC012285211157
:102AF00036C0EC01E380F480F7E5FF1A26E12E9D55
:102B0000C0012F9D900D1124DC01A151BD4F1496E1
:102B1000ED91FC9115978B509D4F309729F054966D
:102B20006D917C915597099586E18E9D80018F9DD1
:102B3000100D112401511D4FF80187810E941429A5
:102B4000F80180850E940D290E9492291882198619
:102B50001B861E821D821092EE021092ED02DF9102
:102B6000CF911F910F91FF90EF900895CF93DF9336
:102B7000FC012189211119C0EC0181E0818B878141
:102B80000E941B299091EC028885892B8093EC028E
:102B90000E949229EA81FB81CE010696309729F0A6
:102BA0006C897D89DF91CF910994DF91CF91089550
:102BB0000F931F93CF93DF93C42FD22FFC018281F9
:102BC0008823C9F04093EB020E94A5149093EA0277
:102BD0008093E90280E28C0F883008F05BC0C770F8
:102BE00081E001C0880FCA95EAF7DF91CF911F916C
:102BF0000F910C94AA218091EB02481334C080916C
:102C0000E9029091EA020E948A142091DD0230913B
:102C1000DE028217930738F510E21D0FCD17B9F0C9
:102C200080E28C0F883040F4C77081E001C0880FCB
:102C3000CA95EAF70E94A321183028F581E09D2F5C
:102C4000977001C0880F9A95EAF70E94AA21802FF9
:102C50000E94BF221830F0F4D77081E001C0880FC5
:102C6000DA95EAF70AC080E28C0F883098F4C770D2
:102C700081E001C0880FCA95EAF7DF91CF911F91DB
:102C80000F910C94A321802FDF91CF911F910F9171
:102C90000C94BF22DF91CF911F910F910895CF9394
:102CA000DF93EC014091BA025091BB026091BC02EB
:102CB0007091BD022FB7F8948091A6039091A7035D
:102CC000A091A803B091A9032FBF841B950BA60B5D
:102CD000B70B843F9140A105B105A8F48091BA02D9
:102CE0009091BB02A091BC02B091BD028093B6024C
:102CF0009093B702A093B802B093B90284EF91E029
:102D0000A0E0B0E00EC00E9499146093B6027093E8
:102D1000B7028093B8029093B90282E390E0A0E0FA
:102D2000B0E08093B2029093B302A093B402B09348
:102D3000B502D093C202C093C102DF91CF91089532
:102D4000FF920F931F93CF93DF930091C3021091D3
:102D5000C4020115110509F45CC01092C202109260
:102D6000C1021092BE021092BF02D80116966D9158
:102D70007C9117979B013A9521153F4108F4707E8D
:102D8000C62FD1E0611101C0D0E0F82ED80119960C
:102D9000ED91FC911A97309739F01B966D917C91CB
:102DA0001C9780E00995D823DD2379F08CEF8C0FF8
:102DB000813A30F46C2F81EC91E00E94DA1405C066
:102DC0000E9492298C2F0E94B121E091C302F091C0
:102DD000C40240815181FF2071F0808584FD0BC0C9
:102DE0008091C002882339F091E09A012150310985
:102DF000253A3D4508F090E090FF03C0CA010E94CB
:102E00004F160E9492291092C4021092C30210928F
:102E1000C002C801DF91CF911F910F91FF900895DB
:102E2000FC0184818623C1F492819923B9F08085C5
:102E3000692383FF04C081E0611111C00DC0892F97
:102E40008F7092959F70982B862F8F7062956F7000
:102E5000682B81E0961719F080E0089581E00895CD
:102E6000452B41F06F3F41F491E08F3F09F090E036
:102E7000892F03C081E001C080E081700895BC010A
:102E80004091AE028091AF02942F981729F1292F1B
:102E900030E0F901EE0FFF1FEA55FD4F0190F08180
:102EA000E02DE617F70799F487E0869FF001879FEA
:102EB000F00D1124E259FD4F81E0848394130CC07E
:102EC0002F5F3F4F237033272093AE0208952F5F6B
:102ED0003F4F922F9370D9CF0895EF92FF920F93A7
:102EE0001F93CF93DF9380910D02882309F440C094
:102EF00000910C028CE0F82E80910D020817A0F5CD
:102F0000EE24E394E00EE0920C0210E0F09EE0016B
:102F1000F19ED00D1124C25FDD4F4B815C81698130
:102F200088810E94301781111DC08E819F81892B5D
:102F300021F488859985019651F4288139814A8147
:102F40005B816C817D818E819F810E944225F09EF4
:102F5000F001F19EF00D1124E25FFD4F1482138207
:102F60001092EC020E2DC8CF10920D0210920C029E
:102F7000DF91CF911F910F91FF90EF9008951092E4
:102F80000B0210920A02EEE6F2E08581811102C086
:102F900014821682379682E0E63AF807B1F7089570
:102FA0001092B1021092B002109214018091AF02FF
:102FB0008093AE020E94BF170C946D173F924F9200
:102FC0005F926F927F928F929F92AF92BF92CF92B9
:102FD000DF92EF92FF920F931F93CF93DF93C091F5
:102FE000AE0297E0892E01E010E02CE0322E3EEF99
:102FF000932E442443948091AF02C81709F478C0FB
:10300000D0E0FE01EE0FFF1FEA55FD4F8081918158
:10301000889ED001899EB00D1124A259BD4F1496EF
:103020002C911497211161C050900D02EEE0F2E056
:1030300020E030E0712C5D01251508F054C0E284D9
:10304000F384D501CD90DC906FEF7FEF612C462D9E
:1030500050E0DA01AA0FBB1FAC0DBD1D0D90BC9155
:10306000A02D109731F0EA16FB0609F4BA0163941B
:10307000EECF6F3FBFEF7B0791F1D80102C0AA0FDF
:10308000BB1F6A95E2F77A2AB80102C0660F771F64
:103090006A94E2F7AB0141505109672D70E0461781
:1030A0005707D9F4329EF001339EF00D1124E25FF0
:1030B000FD4F889ED001899EB00D1124A259BD4FAD
:1030C00012962D913C91139737832683908291829B
:1030D0009187808715964C9206C0148213822F5FC9
:1030E0003F4F3C96A9CF0E943F172196C37083CFD4
:1030F0000E946D17DF91CF911F910F91FF90EF907C
:10310000DF90CF90BF90AF909F908F907F906F9007
:103110005F904F903F900C94BF1780911301877F71
:103120008093130182E00E940D298091130184FF96
:1031300006C08F7E8093130182E00E941B2980913C
:10314000130185FF06C08F7D8093130180E20E94EA
:103150001B290C949229662329F02091EC0222600D
:103160002093EC029C013056211540E2340720F0F8
:10317000305E2115304108F499270C943D2E0097BC
:1031800041F0EFE9FFE03197F1F700C0000001974F
:10319000F6CF0895AF92BF92CF92DF92EF92FF9257
:1031A0000F931F93CF93DF935C017B01C42E8901A2
:1031B0008091130182FF8DC0C0910802D091090255
:1031C000CA15DB0521F0A114B10409F082C0809179
:1031D00013018B7F8093130181FD11C08091060242
:1031E00090910702A701481B590B81E02091110122
:1031F000309112014217530718F480E001C081E0BA
:103200008170D82E80911301D0FA81F98093130137
:10321000FE01FF2784E0F695E7958A95E1F79E0188
:103220002F703327EE0FFF1FEA51FE4F81E090E031
:1032300002C0880F991F2A95E2F7DD2029F020812E
:103240003181822B932B06C080959095208131810E
:1032500082239323918380838091E50181FF08C0BD
:103260008091130180618093130182E00E941429F0
:103270008091E50185FF08C08091130180628093F1
:10328000130180E20E941429A8016D2DCE010E9435
:10329000AB18CC2031F08091E00285FF02C086FFA0
:1032A00036C08091E3029091E4020E94BF188091A1
:1032B0000802909109029C013056211540E2340722
:1032C00020F0305E2115304108F499270E94232E0A
:1032D00018C095013327C5019056811540E2940727
:1032E00020F0905E8115904110F4C90101C0C50124
:1032F0000E94232E8091080290910902A816B90617
:1033000011F40E948D18F0920702E0920602DF91FC
:10331000CF911F910F91FF90EF90DF90CF90BF90D2
:10332000AF9008950F931F93CF93DF9305EC12E0B6
:10333000CFE8D1E0CE010E94D231F80181938F0114
:103340002196C33BF1E0DF07A9F7C0E0D0E0FE0122
:10335000E05BFB4F85919491009711F0FC0109957A
:103360002896C835D10599F7DF91CF911F910F911C
:1033700008950F931F93CF93DF9305EC12E0CFE8EE
:10338000D1E0CE010E94D231F80161918F0168171E
:1033900019F0CE010E94E0312196C33BF1E0DF0736
:1033A00081F7DF91CF911F910F910895E5ECF2E045
:1033B000128E138E8FEA90E09183808385E0848F54
:1033C00028E833E13383228322E330E0378B268BF6
:1033D00028EC30E0318F208F158E2AE030E0378FD7
:1033E000268F20E530E031A320A382A30E94B919E3
:1033F0000C949219CF93DF93C3EAD2E060E0CE0140
:103400000E94E0312196C11584E0D807B9F7DF9119
:10341000CF910895462F2091E3013091E401232BB1
:1034200091F47E3F39F46E3F71F48091E101909107
:10343000E2010895823038F47A3028F4693018F4C3
:10344000672F0C948C2E80E090E008956F927F920D
:103450008F929F92AF92BF92CF92DF92EF92FF92A4
:103460000F931F93CF93DF93CDB7DEB76E970FB651
:10347000F894DEBF0FBECDBFA0900F01B090100139
:1034800081E090E09093100180930F01612CC12C9A
:10349000D12C712CE12CF12C00E010E046018E0CB7
:1034A0009F1CF801EE0FFF1FE80DF91DEE51FD4FB7
:1034B00025913491402F672D862D0E94562E0F5F47
:1034C0001F4F0930110569F782E1E80EF11C739472
:1034D000EAE07E12E1CFF4EBCF0ED11C639482E0E0
:1034E0006812D7CF0E94D6191A8219821C821B82B9
:1034F0001E821D8218861F8288EC90E09A87898739
:1035000003EB11E04AE050E0B801CE0101960E94C1
:103510000432065F1F4F0330E2E01E0799F77E0179
:10352000FBE0EF0EF11C8AE0F70111928A95E9F7B2
:103530004AE050E0B801C7010E940432065F1F4F05
:103540000335F2E01F07A1F77E0185E1E80EF11CCB
:103550008AE0F70111928A95E9F78FEF9FEF9A8F32
:10356000898F87E08E8F4AE050E0B801C7010E9442
:103570000432065F1F4F033AF2E01F07A1F7B09233
:103580001001A0920F016E960FB6F894DEBF0FBE29
:10359000CDBFDF91CF911F910F91FF90EF90DF9002
:1035A000CF90BF90AF909F908F907F906F90089535
:1035B000883080F49B01982F8AE0989FB0011124F5
:1035C0006D547E4F4AE050E0C9010E94C23180E054
:1035D00090E008958FEF9FEF08958091D60387FFC5
:1035E00011C08091E80082FD05C08091D403811153
:1035F000F8CF11C08091E8008B770BC08091D40385
:10360000882349F08091E80080FFF8CF8091E8009E
:103610008E778093E8000895982F973068F59093FF
:10362000E900981739F07091EC002091ED0050916D
:10363000F00003C0242F762F50E021FD02C09F5FD1
:10364000ECCF3091EB003E7F3093EB003091ED00FA
:103650003D7F3093ED003091EB0031603093EB0013
:103660007093EC002093ED005093F0002091EE0059
:1036700027FDE5CF80E008958F708093E90081E019
:1036800008952091DC033091DD032617370748F0B9
:103690006115710539F42091E8002E772093E80038
:1036A00001C0B901FC0120E06115710579F180913B
:1036B000D4038823F1F18530F1F18091E80083FD96
:1036C0003CC08091E80082FD2EC08091E80080FF20
:1036D000EBCF2091F3008091F20090E0922B6115E6
:1036E000710551F08830910538F421912093F10053
:1036F000615071090196F3CF21E0089709F020E0AD
:103700008091E8008E778093E800CECF2111CFCF53
:103710000AC08091D403882361F0853061F08091E4
:10372000E80083FD0AC08091E80082FFF2CF80E0CC
:10373000089582E0089583E0089581E00895089552
:10374000BC0184E00C941614BC0183E00C941614A4
:103750008091DE03982F9670963011F4886001C036
:10376000877F0C9434211F93CF93DF93CDB7DEB7BF
:10377000AA970FB6F894DEBF0FBECDBFE6EDF3E01B
:103780008EED93E02091F10021938E179F07D1F7E2
:103790008091D703833009F463C030F4813071F035
:1037A000823009F49DC0B4C08A3009F489C08B30DE
:1037B00009F46EC0893009F0ABC020C08091D603F7
:1037C000813A09F0A5C08091E800877F8093E800E6
:1037D0008091DA039091DB03892B21F460E282EB84
:1037E00093E003C060E080E090E070E00E94411B45
:1037F0008091E8008B778093E8008AC08091D6039F
:10380000813209F085C08091DA039091DB03009743
:1038100019F0029709F07CC08091E800877F8093BF
:10382000E8008091E80082FD05C08091D4038111F9
:10383000F8CF6EC02091F3008091F20090E0922BBF
:10384000029731F48091F100813011F0863021F43B
:103850008091F1008093B1038091E8008B7754C090
:103860008091D603813A09F053C08091DA03909198
:10387000DB03892B09F04CC08091E800877F80939F
:10388000E8008091E80080FFFCCF8091150137C0EF
:103890008091D6038132E1F58091DA039091DB03C8
:1038A000892BB1F58091E800877F8093E8000E9422
:1038B000ED1A8091D803809315010E947D2128C0C4
:1038C0008091D603813221F58091E800877F809333
:1038D000E8000E94ED1A8091D9038093B00318C0CC
:1038E0008091D603813AA1F48091E800877F80938C
:1038F000E8008091E80080FFFCCF8091B0038093C6
:10390000F1008091E8008E778093E8000E94ED1A24
:103910008091E80083FFEBC18091D6039091D7039B
:10392000492F50E04A30510508F0E1C1FA01E95849
:10393000FF4F0C941C32803821F0823809F0D7C137
:1039400008C08091D2039091D303992389F08260BB
:103950000FC08091DA038F70873008F0C8C1809360
:10396000E9008091EB0085FB882780F91092E9003F
:103970009091E800977F9093E8008093F100109277
:10398000F1007CC1282F2D7F09F0B1C1882319F0E7
:10399000823061F0ACC18091D803813009F0A7C1B9
:1039A000933009F080E08093D3032EC08091D80338
:1039B00081112AC08091DA038F702FEF280F2630F3
:1039C00008F095C18093E9002091EB0020FF1CC016
:1039D000933021F48091EB00806214C09091EB0051
:1039E00090619093EB0021E030E0A90102C0440F08
:1039F000551F8A95E2F74093EA001092EA00809101
:103A0000EB0088608093EB001092E9008091E80061
:103A1000877F8093E8000E94ED1A69C1811167C118
:103A20001091D8031F778091E3008078812B8093D9
:103A3000E3008091E800877F8093E8000E94ED1A00
:103A40008091E80080FFFCCF8091E3008068809344
:103A5000E300111102C082E001C083E08093D4032F
:103A600046C18058823008F042C12091D80330917D
:103A7000D9032C3D53E0350779F583E08A838AE248
:103A800089834FB7F894DE01139620E03EE051E2BF
:103A9000E32FF0E050935700E49120FF03C0E2953C
:103AA000EF703F5FEF708E2F90E0EA3010F0C79616
:103AB00001C0C0968D939D932F5F243149F74FBF6E
:103AC0008091E800877F8093E8006AE270E0CE0191
:103AD00001960E94411BC0C08091DA039091DB03E4
:103AE000432F552743305105B1F068F4413051055B
:103AF00009F40CC14230510509F0F9C08BE590E0A2
:103B0000E1E7F5E057C04132510589F142325105F4
:103B100009F43CC0ECC0C901992781309105B9F086
:103B200070F082309105D9F0039709F0E0C0EEED16
:103B3000F5E0E4918E2F90E0EEEDF5E038C0EAE399
:103B4000F6E0E4918E2F90E0EAE3F6E030C0E8E2A0
:103B5000F6E0E4918E2F90E0E8E2F6E028C0ECEF8A
:103B6000F5E0E4918E2F90E0ECEFF5E020C083309B
:103B7000910508F0BCC0880F991FFC01E65CFE4F60
:103B80000190F081E02D89E090E014C08330910530
:103B900008F0ADC0FC01EE0FFF1FEC5CFE4F019082
:103BA000F081E02DDC01AF5CBE4F8C9190E000977E
:103BB00009F49DC02091E800277F2093E800209120
:103BC000DC033091DD032817390708F4C90140E010
:103BD000009789F12091D403222309F43DC02530B8
:103BE000D9F12091E80023FD37C02091E80022FDA3
:103BF0002FC02091E80020FFEBCF4091F3002091EF
:103C0000F20030E0342B009759F02830310540F4B1
:103C100044914093F100319601972F5F3F4FF3CFCE
:103C200041E02830310509F040E02091E8002E778E
:103C30002093E800CDCF4111CDCF0AC08091D403AD
:103C4000882351F0853041F08091E80083FD04C065
:103C50008091E80082FFF2CF8091E8008B7780931B
:103C6000E80045C0803809F042C08091E800877FB5
:103C70008093E8008091D5038093F1008091E80063
:103C80008E77C7CE811133C08091D8039091D9032C
:103C90009927029764F58091E800877F8093E80078
:103CA0001091D8031093D5030E94ED1A111106C08C
:103CB0008091E30087FD02C081E001C084E0809331
:103CC000D40342E061EC81E00E940C1B42E261EC13
:103CD00084E00E940C1B42E261EC82E00E940C1B1B
:103CE00042E260EC83E00E940C1B8091D40380913F
:103CF000E80083FF10C08091E800877F8093E80090
:103D00008091EB0080628093EB0005C082E190E03F
:103D1000ECECF5E04FCFAA960FB6F894DEBF0FBEDD
:103D2000CDBFDF91CF911F9108951F920F920FB6D3
:103D30000F9211242F933F934F935F936F937F9331
:103D40008F939F93AF93BF93CF93DF93EF93FF93A3
:103D5000C091E900CF708091EC00D82FD17080FD28
:103D6000D0E81092E9008091F000877F8093F00006
:103D700078940E94B31B1092E9008091F000886053
:103D80008093F000CD2BCF70C093E900FF91EF91AD
:103D9000DF91CF91BF91AF919F918F917F916F9163
:103DA0005F914F913F912F910F900FBE0F901F90F9
:103DB0001895E8EDF0E080818E7F80831092E2001C
:103DC0001092DA001092E100A0EEB0E08C918160D8
:103DD0008C9380818F77808319BCA7EDB0E08C91A4
:103DE0008E7F8C9380818F7E80831092AF030895A5
:103DF000CF92DF92EF92FF920F931F93CF93DF93B7
:103E0000C8EDD0E088818F7E8883E7EDF0E0808187
:103E10008160808384E082BF81E08093AF038881EA
:103E20008E7F888302EE10E0F80110821092DA0093
:103E300081EEC82ED12CF601108288818F7788837D
:103E400088818068888388818F7D888319BC1092DF
:103E5000D4031092D5031092D3031092D20390EEA4
:103E6000E92EF12CF70180818B7F8083888181602E
:103E7000888342E060E080E00E940C1BF6018081B4
:103E80008E7F8083F801808181608083808188605B
:103E90008083F70180818E7F808388818061888321
:103EA000DF91CF911F910F91FF90EF90DF90CF9016
:103EB00008951F920F920FB60F9211242F933F93E4
:103EC0004F935F936F937F938F939F93AF93BF9322
:103ED000EF93FF938091E10082FF09C08091E2009F
:103EE00082FF05C08091E1008B7F8093E10080918B
:103EF000DA0080FF2AC08091D80080FF26C0809120
:103F0000DA008E7F8093DA008091D90080FF18C09C
:103F100080E189BD82E189BD09B400FEFDCF81E069
:103F20008093D4038091AF0381110FC00E94D91EEA
:103F30000E94F81E8091E20084608093E20005C038
:103F400019BC1092D4031092AF038091E10080FF5E
:103F500017C08091E20080FF13C08091E2008E7F45
:103F60008093E2008091E20080618093E200809182
:103F7000D80080628093D80019BC85E08093D40378
:103F80008091E10084FF30C08091E20084FF2CC06A
:103F900080E189BD82E189BD09B400FEFDCF809139
:103FA000D8008F7D8093D8008091E1008F7E809330
:103FB000E1008091E2008F7E8093E2008091E20038
:103FC00081608093E2008091D503882311F084E022
:103FD00007C08091E30087FD02C081E001C083E05B
:103FE0008093D4038091D4038091E10083FF27C0A4
:103FF0008091E20083FF23C08091E100877F80935E
:10400000E10082E08093D4031092D5038091E10017
:104010008E7F8093E1008091E2008E7F8093E200AA
:104020008091E20080618093E20042E060E080E005
:104030000E940C1B8091F00088608093F000FF913B
:10404000EF91BF91AF919F918F917F916F915F9110
:104050004F913F912F910F900FBE0F901F90189589
:104060002091E4003091E50095E64091EC00842F2A
:10407000817040FF23C08091E80080FD1DC08091C9
:10408000D403882399F0853099F08091EB0085FD69
:1040900011C04091E4005091E5002417350729F341
:1040A000915011F09A01E1CF84E0089582E00895E3
:1040B00083E0089581E0089580E008954091E8004C
:1040C00042FFDDCF0895EF92FF920F931F93CF939E
:1040D000DF937C018B010E943020811119C0E70120
:1040E00001151105A1F08091E80085FD0AC08091BD
:1040F000E8008E778093E8000E943020882381F3C7
:1041000007C089918093F10001501109E9CF80E047
:10411000DF91CF911F910F91FF90EF90089580E074
:1041200090E00E944D1580E090E00E9437151092BB
:10413000EC020C949229CF92DF92FF920F931F937F
:10414000CF93DF936C010091DE0380917404082B00
:10415000C7E0D0E010E0C8010C2E02C0959587950D
:104160000A94E2F780FD04C02197A8F7F12C09C05A
:10417000FC2EB6018C2F0E940A1A0E94EA26019793
:1041800099F38F2DDF91CF911F910F91FF90DF90C9
:10419000CF900895CF93DF93EC010E949B20BE0146
:1041A0000E940A1A0E94EA26DF91CF9108959E3F4D
:1041B00061F129E0929F800D1124682F6695669524
:1041C0006695982F977083E0689FB001112440E0B6
:1041D00050E080E0FB01E40FF51FE152FC4F20812D
:1041E00030E0092E02C0369527950A94E2F7217037
:1041F0003327042E01C0220F0A94EAF7822B4F5F67
:104200005F4F4330510531F7089580E008959E3F98
:1042100051F129E0929F800D1124E82FE695E69553
:10422000E695877051E001C0550F8A95EAF783E063
:10423000E89FF0011124E152FC4F20E030E070E0F3
:104240004081CB01022E02C0969587950A94E2F731
:104250008170819584278523842781932F5F3F4F29
:104260002330310569F708958093DE030C948F2085
:1042700021E030E001C0220F8A95EAF72095809175
:10428000DE0382230C94342121E030E001C0220FB0
:104290008A95EAF78091DE03822B0C943421809377
:1042A00074040C948F2092959F70963079F010F4DE
:1042B000925001C09A50923068F4803F69F018F42F
:1042C000883E40F409C0843F29F406C0883E20F0AF
:1042D000813F11F080E0089581E00895FC0186811E
:1042E0009781009719F00E94EA2604C0808191818D
:1042F0000E94CA200E94532108951092E5018091E6
:104300001501882331F08091AA0387FF02C08EE156
:1043100001C086E0E3ECF1E0DF011D928A95E9F748
:104320000C948F20882321F00E940D290C9492294F
:104330000895882339F09091EC02892B8093EC0248
:104340000C9492290895882321F00E9414290C943A
:1043500092290895882321F00E941B290C94922908
:104360000895882309F453C0682F823869F40E94A5
:10437000631581FF4CC069E381EC91E00E94021556
:104380000E94922969E30EC0833891F40E9463155C
:1043900080FF3DC063E581EC91E00E9402150E9420
:1043A000922963E581EC91E00E94DA140C94922941
:1043B000843869F40E94631582FF29C067E481ECA8
:1043C00091E00E9402150E94922967E4EBCF8CEFE6
:1043D000860F813A38F380E2860F883048F46770A0
:1043E00081E001C0880F6A95EAF70E941429DECFA8
:1043F0008BE5860F833020F480E090E00C944D151F
:10440000685A673120F480E090E00C9437150895E5
:10441000CF93882309F4B1C0C82F8238B1F40E9429
:10442000631581FDAAC069E381EC91E00E94021549
:104430000E9492292FEF81EE94E02150804090401D
:10444000E1F700C0000069E317C08338E1F40E947F
:10445000631580FD92C063E581EC91E00E94021536
:104460000E9492292FEF81EE94E0215080409040ED
:10447000E1F700C0000063E581EC91E00E94DA14EE
:10448000CF910C9492298438B1F40E94631582FD77
:1044900074C067E481EC91E00E9402150E949229A9
:1044A0002FEF81EE94E0215080409040E1F700C072
:1044B000000067E4E1CF8CEF8C0F813AB8F5809172
:1044C00015018823E1F08091AA0387FF18C0EC2F23
:1044D000E695E695E695F0E0EF53FE4F8281282FB2
:1044E00030E04C2F477081E090E002C0880F991FA8
:1044F0004A95E2F782239323892B59F411C0E3EC08
:10450000F1E08191C81729F021E0E93CF207C9F7F1
:1045100007C06C2F81EC91E00E94DA140E9492296E
:104520006C2F81EC91E00E940215AACF80E28C0FE3
:10453000883048F4C77081E001C0880FCA95EAF757
:104540000E941B299DCFEBE5EC0FE33040F4F0E037
:10455000E05CFE4F808190E0CF910C944D15C85ADD
:10456000C73158F4EC2FF0E0EE0FFF1FED5BFE4F6C
:1045700080819181CF910C943715CF9108951F932D
:10458000CF93DF93182F893329F4C091E502D0919E
:10459000E60204C0C091E302D091E402812F0E94A0
:1045A0000822209741F08FE99FE00197F1F700C0C2
:1045B00000002197F6CF812FDF91CF911F910C94AE
:1045C000B1212F923F924F925F926F927F928F9282
:1045D0009F92AF92BF92CF92DF92EF92FF920F9392
:1045E0001F93CF93DF93CDB7DEB765970FB6F894DF
:1045F000DEBF0FBECDBF8C0185E0F801DE01519614
:1046000001900D928A95E1F7D8014C9011965C903B
:1046100011971296EC9012971396CD90DC90149708
:1046200060E083E094E00E94812B83E0A82E84E088
:10463000B82E8090060490900704A40160910404B1
:10464000809103040E943017F82E8111E5C130904B
:104650000504F601E819F9094F0160E0332009F477
:1046600069C1C5010E94812B6090DD027090DE025D
:10467000209008048614970408F014C140910604A1
:1046800050910704B0900304A0900404822D807F11
:104690006A2D09F097C08B2D0E943017811124C01C
:1046A000D80111968C9111978A111EC08C918B1193
:1046B0001BC02091090430910A0416968D919C919B
:1046C00017972817390781F4E1100EC0822D8F70DB
:1046D00080618093080483E094E00E94B10380919C
:1046E0000804F8018583B4C1F4EF6F16F1E07F068A
:1046F00020F48091E20280FF21C0A601652D842D67
:104700000E943017811103C081E08E2502C080E035
:1047100090E080FF13C04E2D652D842D0E94082A45
:10472000882361F083E094E00E94B103E3E0F4E0C9
:1047300088E0DF011D928A95E9F78AC1A601652DFF
:10474000842D0E943017811103C081E08E2502C0A4
:1047500080E090E0B82FB170CB2E80FF2AC04E2DA4
:10476000652D842D0E94082AD82E811122C0498AE5
:104770005A8A89899A890E94CA20292F22952F70E6
:10478000223018F0243078F405C09F7049F0811170
:1047900007C00DC09F7021F0F8019581907F39F01E
:1047A000805E883020F0C8010E94B103DC2CFD2C13
:1047B0004FC1EE2009F44BC18091080481608093C1
:1047C000080446C18B2D0E943017811124C0D801E6
:1047D00011968C9111978A111EC08C918B111BC060
:1047E0002091090430910A0416968D919C91179797
:1047F0002817390781F4E1100EC015962C92C801D4
:104800000E94B10388E0F801A3E0B4E001900D92AA
:104810008A95E1F76FC0C8010E946E218823E1F1FB
:10482000EE20D1F120910804822F82958F7090E0C4
:104830000297A4F080910304909104049A878987D9
:104840001B86DD86CC862E878091090490910A0410
:10485000988B8F87CE0109960E94B10388E0F801FA
:10486000A3E0B4E001900D928A95E1F70E94322A0C
:1048700016C0F090030490900404409106045091F7
:104880000704692D8F2D0E943017882399F0C801E5
:104890000E946E21811130C0C8010E94B103FF2423
:1048A000F394D6C0822D807F21F783E094E00E94AC
:1048B000B103ACC0D80111968C9111978911E7CF43
:1048C0008C918F11E4CF2091090430910A0416963F
:1048D0008D919C91179728173907C9F6E110D7CF0A
:1048E00015962C92C8010E94B10388E0F50111923F
:1048F0008A95E9F7F32CACC0EE2071F22091080400
:10490000822F82958F7090E002970CF4A7CF809150
:104910000304909104049A8389831B82DD82CC82F4
:104920002E838091090490910A0498878F83CE0189
:10493000019692CF83E094E00E94812B8091DD026A
:104940009091DE028816990608F060C0FE2CEE20D9
:1049500009F4A2CFE0900304D0900404409106042F
:10496000509107046D2D8E2D0E943017811140C08B
:10497000D80111968C9111978D113AC08C918E119E
:1049800037C02091090430910A0416968D919C91AC
:1049900017972817390761F58091E20282FD1FC041
:1049A0008091080480FD1BC082958F70482F50E0D5
:1049B00041155105A1F02091080415962C931597E7
:1049C0004F30510549F08F5F982F9295907F822F3D
:1049D0008F70892B15968C93C8010E94B10388E0D3
:1049E000F801A3E0B4E001900D928A95E1F730C0A0
:1049F000C8010E946E21811131CF8091080481602D
:104A000080930804C8010E94B10322C088E0F50128
:104A100011928A95E9F71CC0EE2009F43DCFC80138
:104A20000E946E21F82E882309F436CF88E0F80121
:104A3000A3E0B4E001900D928A95E1F78091030420
:104A4000909104040E94CA200E94322A01C0F12CD5
:104A50008F2D65960FB6F894DEBF0FBECDBFDF91E8
:104A6000CF911F910F91FF90EF90DF90CF90BF906B
:104A7000AF909F908F907F906F905F904F903F90FE
:104A80002F900895EF92FF920F931F93CF93DF9390
:104A9000CDB7DEB760970FB6F894DEBF0FBECDBFBF
:104AA00029873A874B875C876D877E878F87988BAE
:104AB000CE0109960E94E12281114AC088E0FE01E0
:104AC0003996DE01119601900D928A95E1F7E984FD
:104AD000FA840C851D85A8016F2D8E2D0E9430173C
:104AE000811136C0A0910B04B0E0CD010196877012
:104AF000992720914C0430E08217930781F1E982D5
:104B0000FA821D830C8393E0AA0FBB1F9A95E1F7ED
:104B1000A45FBB4F98E0FE01319601900D929A95EB
:104B2000E1F780930B040E94282A12C028E0829F9C
:104B3000C0011124845F9B4F0E94E1228823E1F091
:104B400080914C0490E001968770992780934C04E3
:104B500080914C0490910B048913E8CF0DC00E9402
:104B60007D2110920B0410924C04E3E0F4E088E005
:104B7000DF011D928A95E9F760960FB6F894DEBFC3
:104B80000FBECDBFDF91CF911F910F91FF90EF909E
:104B9000089580E008959091AA0392FF0DC0282FF8
:104BA0002871283019F4877F846006C0282F24716B
:104BB000243011F48B7F886093FF0DC0282F28715B
:104BC000283119F4877E846106C0282F247124318E
:104BD00011F48B7E88612091AB0320FF0DC0382F2C
:104BE0003871383019F4877F816006C0382F3171F1
:104BF000313011F48E7F886021FF0DC0282F28717D
:104C0000283119F4877E816106C0282F2171213156
:104C100011F48E7E886194FD877E0895F894E82FC4
:104C2000E295EF70F0E031A1282F2F7081E090E045
:104C300001C0880F2A95EAF7982F9095932391A3A6
:104C400092A1892B82A3789408958F929F92AF921C
:104C5000BF92CF92DF92EF92FF920F931F93CF9369
:104C6000DF93CDB7DEB764970FB6F894DEBF0FBE03
:104C7000CDBFAE014F5F5F4F7A0184E1FA0111921F
:104C80008A95E9F70EE111E06A01AA24A394B12CF8
:104C9000F80180818F3F09F447C0F894E82FE2952E
:104CA000EF70F0E021A18F70A50102C0440F551FE5
:104CB0008A95E2F7CA01922F982B91A392A1809531
:104CC000892382A3789400C0E8E2F1E021E030E09B
:104CD000812C912C41914F3F89F0A42FA295AF7068
:104CE000B0E090968C9190E04F7002C095958795BA
:104CF0004A95E2F780FD02C0C90102C080E090E061
:104D0000882A992A220F331F51E0E133F50711F762
:104D1000F80180818F3F11F00E940E26F0EAFA958B
:104D2000F1F7F601918280820F5F1F4FF2E0CF0E04
:104D3000D11C41E00832140709F0AACF44E150E049
:104D4000B70189E791E00E94293211E0009709F448
:104D500010E0892B89F084E1F701A9E7B1E0019027
:104D60000D928A95E1F781E0809377040E94A51463
:104D70009093760480937504809177048823B1F032
:104D800080917504909176040E948A14059770F0C2
:104D9000E9E7F1E0ADEAB1E0819191918D939D93C6
:104DA00051E0ED38F507C1F710927704812F649632
:104DB0000FB6F894DEBF0FBECDBFDF91CF911F912C
:104DC0000F91FF90EF90DF90CF90BF90AF909F90AA
:104DD0008F900895CF93DF938238910569F1B0F4F5
:104DE0008133910509F46FC048F48932910509F4C3
:104DF00065C08A32910509F46BC08AC0853391057C
:104E000009F457C089339105B9F082C0833E9105FA
:104E100071F138F4803E9105B1F0823E910511F1B7
:104E200077C0863E9105B9F1873E9105C9F1843E70
:104E3000910509F06DC024C02091AA0320FD53C044
:104E400021FD51C065C08091AA0380FD46C08091BC
:104E5000AB0380FF48C08091AA0384FD3FC183EE6D
:104E600090E03EC18091AA0382FF3AC0F4CF8091C6
:104E7000AA0382FD35C08091AB0380FD34C0EBCF27
:104E80008091AB0381FF35C08091AA0384FD26C1C8
:104E900087EE90E025C18091AA0383FF27C0F4CF5D
:104EA0008091AA0383FD22C08091AB0381FD21C0C4
:104EB000EBCF8091AA0385FD1FC021C08091AA037A
:104EC00085FD1DC019C08091AA0386FD1BC01DC0B1
:104ED0008091AA0386FD19C015C089E390E000C146
:104EE00082EE90E0FDC080EE90E0FAC086EE90E0A9
:104EF000F7C084EE90E0F4C089E290E0F1C085E371
:104F000090E0EEC08AE290E0EBC081E390E0E8C080
:104F1000811532E5930708F069C0811541E59407D2
:104F200028F0982F8827816F906ADAC0883E910513
:104F300068F5803E910508F0D3C0883A9105B8F431
:104F4000853A910548F0855AE82FF0E0E05CFE4F85
:104F5000808190E09064C4C08130910509F4BBC0A9
:104F600008F4BCC08430910508F4B8C0B9C08F3BC8
:104F7000910508F0B3C0885AE82FF0E0EE0FFF1F4C
:104F8000ED5BFE4F808191819464AAC0811520E57C
:104F90009207F0F09C0174E0369527957A95E1F739
:104FA000922F9370482F437021E030E002C0220F0F
:104FB000331F4A95E2F73C68392B8F70982F9695EE
:104FC000969540E2949FC0011124822B932B88C0B8
:104FD000811530E4930718F09F70906A81C09C019E
:104FE0003A9521153F4108F47BC078C0EC01C1150A
:104FF00086E5D807E8F5C11525E5D20748F08C2FDE
:105000000E94CB258F7190E0982F8827906268C00E
:10501000C11534E5D30728F09C2F8827846F906A48
:105020005FC0AE01437055272C2F26952695C115DC
:10503000D34578F481E090E002C0880F991F4A952B
:10504000E2F740E2249F90011124822B932B9C686D
:1050500047C081E090E002C0880F991F4A95E2F7AF
:1050600040E2249F90011124822B932B9A6838C030
:10507000C1152AE5D207F8F4C11539E5D30790F038
:105080008C2F8F700E94CB2594E0D695C7959A956A
:10509000E1F7CF70D0E0DC2FCC27D0699E01282B20
:1050A000C9011EC0C11548E5D407C0F09C2F882750
:1050B000806F906A15C0CE0190568115904270F4B1
:1050C0008D2F8F710E94CB25282F2F71CE0199270C
:1050D0009062922B05C081E090E002C080E090E0F9
:1050E000DF91CF910895CF9384E090E00E94D23178
:1050F000C82F82E290E00E94D2312C2F30E0A9012B
:10510000582BCA01CF91089569EE7EEF80E090E0C0
:105110000E94FE3160E082E090E00E94E03160E0B9
:1051200083E090E00E94E0311092740460E084E03B
:1051300090E00E94E03160E082E290E00E94E03185
:1051400060E085E090E00E94E03160E086E090E081
:105150000E94E0316FEF87E090E00E94E03140E094
:1051600050E0BA0188E090E00E94F23160E08DE00A
:1051700090E00E94E03140E050E0BA0188E190E028
:105180000E94F23160E087E190E00E94E03140E06F
:1051900050E0BA018CE190E00E94F23160E070E0F2
:1051A00080E290E00E94FE3140E050E0BA0188E1E8
:1051B00090E00E94F23180E00E9473310E949131B0
:1051C00040E050E0BA018FE090E00E94F23140E010
:1051D00050E0BA0183E190E00C94F23180917304C5
:1051E000882331F0109273041092720410927104AB
:1051F0000895CF939091AB0392FD0DC090917304ED
:10520000981749F0C82F0E94A514909372048093B8
:105210007104C0937304CF91089580959091EC022E
:1052200089238093EC02089580959091E50189236C
:105230008093E50108959091E501892B8093E50124
:1052400008951092500410924F0410924E04089545
:10525000209150048095822380935004982F97705A
:1052600099F430E0482F082E000C550B2417350711
:1052700059F09091AB0392FD07C085958595859572
:105280000E9438210C9421290895CF93C091AB033B
:10529000C2FB992790F9981799F080FBC2F9C09347
:1052A000AB036091AA0384E090E00E94E0316C2F90
:1052B00082E290E00E94E03182E0CF910C942829B4
:1052C000CF9108959091AB0392FD10C098E0899F13
:1052D00090011124262B209350040E9444210E9407
:1052E000A51490934F0480934E0408950C94442188
:1052F0008091C7029091C802892B89F00E94A51461
:105300002091710430917204AC01421B530B81E077
:105310002091C7023091C8024217530708F480E079
:1053200081700895CF939091E5018091EC02892BD3
:105330008093C10180917304882351F18091C70249
:105340009091C802892B29F00E94782981110E942E
:10535000EE289091C10180917304892B8093C10143
:1053600080911501882331F08091AA0387FF02C044
:105370008EE101C086E0E3ECF1E090E0815028F09E
:1053800021912223D9F39F5FF9CF91110E94EE283A
:10539000C091BE02C0958091C101C8238091BF0217
:1053A000C82BC093C10140E250E061E574E081EC9C
:1053B00091E00E942932892B19F180E2E1ECF1E0C1
:1053C000A1E5B4E001900D928A95E1F7E091A10387
:1053D000F091A2033097A1F080911501882349F044
:1053E0008091AA0387FF05C0C093C20186E0809325
:1053F000C1010280F381E02D81EC91E0CF9109940D
:10540000CF91089580914D04811110924D0408951B
:1054100020914C0490910B042917B1F030E0F90170
:1054200053E0EE0FFF1F5A95E1F7E45FFB4F518108
:10543000561306C05081581303C05281541306C03E
:105440002F5F3F4F2770E8CF80E0089581E00895F7
:1054500080914C0490910B04891719F08F5F87702D
:10546000FBCF0895CF92DF92EF92FF920F931F939D
:10547000CF93DF938091080482958F7009F05CC010
:1054800080910504882309F457C0C0914C04809191
:105490000B04C81709F450C0F0900304E090040412
:1054A000C0900604D0900704A6016E2D8F2D0E9497
:1054B0003017D0E081113DC08E0183E0000F111F35
:1054C0008A95E1F7F801E45FFB4F81818E1131C0CD
:1054D00080818F112EC0828181112BC0E380F480E6
:1054E000EC18FD0860E083E094E00E94812B80913D
:1054F000DD029091DE02E816F906D8F480910804E6
:105500008F70806180930804F801EF5EFB4F80810B
:105510008F708061808383E094E00E94B103DF910B
:10552000CF911F910F91FF90EF90DF90CF900C944F
:10553000282A2196C770ABCFDF91CF911F910F9191
:10554000FF90EF90DF90CF900895AF92BF92CF92EF
:10555000DF92EF92FF920F931F93CF93DF93EC01B3
:105560008AE0A82E2881222309F497C0213009F06F
:1055700041C08981813039F48E010E5F1F4F8A81CD
:105580000E94BF2208C0823041F48E010E5F1F4F7F
:105590008A810E940822E8017EC0833039F48E019E
:1055A0000E5F1F4F8A810E94B121F5CF843011F028
:1055B000219671C02A81229680E090E030E020534D
:1055C00031092A30310558F4A89EA001A99E500D3A
:1055D0001124C901840F951F21962881EFCF0097D0
:1055E00009F459C0EFE9FFE03197F1F700C000007E
:1055F0000197F5CFE22FF0E0E259F94FB490822FF6
:1056000086958695869590E0FC01E25AF94FE490E4
:105610002770F12C022E02C0F594E7940A94E2F769
:10562000F1E0EF22FF24FC01E25BF94FC490D12CA2
:10563000022E02C0D594C7940A94E2F731E0C32247
:10564000DD24FC01E25CF94F049110E002C01595E5
:1056500007952A95E2F701701127E114F10419F07A
:1056600081EE0E940822C114D10419F086EE0E9436
:1056700008228B2D0E94BF22CD2819F086EE0E94B1
:10568000B121EF2819F081EE0E94B121012B19F010
:105690008CE20E94BF22219665CFDF91CF911F91AE
:1056A0000F91FF90EF90DF90CF90BF90AF90089553
:1056B0001F93CF93DF9300D000D01F92CDB7DEB7FA
:1056C00049835A8389819A81662359F0222349F0BC
:1056D0000E949B20182F682F89819A810E940721A0
:1056E00003C00E94D720182F69817A81812F0F90E3
:1056F0000F900F900F900F90DF91CF911F910C940E
:105700000A1AFC01262F86819781009739F440817F
:1057100051816281738184810C94582B08952F925A
:105720003F924F925F926F927F928F929F92AF9231
:10573000BF92CF92DF92EF92FF920F931F93CF937E
:10574000DF93CDB7DEB76A970FB6F894DEBF0FBE12
:10575000CDBF942F498B252F5A8B6B8B7C8B8D8BD8
:105760004C895D89622F892F0E943017811109C0F1
:1057700080917701909178010196909378018093C0
:1057800077018B8981111092EC028E01075F1F4F08
:1057900088E0F80111928A95E9F785E0FE0171969B
:1057A000D80101900D928A95E1F78091AB0382FDBB
:1057B00028C08091C7029091C802892B11F10E94E4
:1057C000A51420914E0430914F04821B930B20911D
:1057D000C7023091C8028217930740F080915004AD
:1057E00082FB992790F981E0892701C080E080FF42
:1057F00003C082E00E9428290E94782981110E941A
:10580000EE284C855D856A8589850E943017811157
:10581000CAC161E0C8010E94812B6C01873FFCE591
:105820009F0739F48B858823A9F081E080931401C8
:10583000BAC1883F9C4531F48B85882359F00E947A
:10584000D017B1C189EFC8168CE5D80619F48B853D
:10585000811111C00EE612E0512CA12CB12C66244E
:105860006394712C33243394FE013196FF8BEE8BBD
:10587000F7E02F2E4DC0809114018823B1F2DFCFC5
:10588000C616D70609F097019F5F7901292F30E0EE
:10589000F901EE0FFF1FE40FF51F608171816115A3
:1058A000710571F7FFEFEF16FF0609F430C1F8013B
:1058B0006481611135C020911401822F81704B8465
:1058C000F80135812681442009F4C9C0882309F4F0
:1058D000C6C08090DB029090DC02332321F193015B
:1058E00002C0220F331F9A95E2F721503109F801C7
:1058F000868190E02817390749F15428FFEFAF1A45
:10590000BF0A095F1F4F28E0A216B10409F401C1C4
:10591000F80140815181EE24EA94FE2C90E0B6CF4C
:1059200020E030E0CACFA30101C0440FEA94EAF7B7
:10593000242B268320910A0230910B022815390569
:1059400070F690920B0280920A02C9CF8091B00249
:105950009091B102009731F00E948A14881699063E
:1059600008F41EC18091AE02F091AF02F88FE0E022
:10597000F0E0288D821709F460C0282F30E0F9018B
:10598000EE0FFF1FEA55FD4F80809180289CF001AB
:10599000299CF00D1124E259FD4FF080E18050E088
:1059A00090E040E0EF2DFE2DE40FF11DE40FF11D1E
:1059B000A081B1811097D1F0F801F081F98FF80141
:1059C000F181FA8F90E0E98DFA8DE90FF11DE90F71
:1059D000F11D608171816115710531F0A617B7075E
:1059E00009F451E09F5FEFCF4F5FDCCF5523F9F013
:1059F0009417C8F0289CF001299CF00D1124E2595D
:105A0000FD4F3097B1F03482E017F10709F475CFFC
:105A10009091AE0289130DC0C90101968370992738
:105A20008093AE0206C00115110509F0B9C0E0E08F
:105A3000F0E0C901019683709CCFE017F10709F4EB
:105A40005CCF90E0FC01EE0FFF1FEA55FD4FB182E5
:105A5000A0820196837099278093AF024ECF3111B7
:105A600012C0A30102C0440F551F9A95E2F741509E
:105A7000510930E042175307E9F56623E1F1C5010A
:105A80000E943F1737C0822F90E09C0121503109BE
:105A9000282339230E2C02C0959587950A94E2F7A6
:105AA000232B31F580FF24C0F80182819381892B5B
:105AB000D9F088E0EE89FF8911928A95E9F78EEF97
:105AC00089838A830E94A5148160582F9D838C83CB
:105AD000F801828193818F83988729813A814B8154
